:020000040000FA
:100000008A110A1208280000000000000000000009
:10001000283084005830A0008001840AA00B0C28EE
:10002000103095002730960000308E0000308F0091
:10003000013090000B309700831686309F008312AA
:10004000003085008316FF30850083120030860063
:100050008316E73086008312003087008316FF3056
:1000600087008312003088008316FF3088008312D7
:100070000030890083160730890083120C1D3E284A
:100080000C116400A914A9182915A91C2911A9117A
:1000900029192916291D2912A91A4F282912291EA2
:1000A0005228A91529192916291D29120618592877
:1000B0002912291E5C28A91529192916291D29127A
:1000C000061A63282912291E6628A915A9192915B7
:1000D000A91D2911861C6D282911061D70282911BA
:1000E00029190616291D0612A9182915A91C291156
:1000F00029132919A917291DA91306198028A9133D
:10010000A91F832829172919A917291DA913861999
:100110008A28A913A91F8D282917291B2915291FEA
:100120002911A91E94282911861C972829112919FB
:100130008615291D8611A9182915A91C29118619AA
:10014000A2282911291DB92801302B020319AF2833
:10015000A00020092B05A006A01BB428B8282B302E
:100160002A02031CB428B828AA0FB728AB0A291101
:10017000BD280030AA000030AB002919A916291D9E
:06018000A9128A013E28CD
:02400E00723FFF
:00000001FF
